:020000040800F2
:1000000038090020550200087D2700087D230008DC
:100010007927000835050008952A0008000000002F
:10002000000000000000000000000000812800081F
:100030004505000800000000812700088528000809
:100040006F0200086F0200086F0200086F020008CC
:100050006F0200086F0200086F0200086F020008BC
:100060006F0200086F020008490500086F020008CF
:100070006F0200086F0200086F0200086F0200089C
:100080006F0200086F0200086F0200086F0200088C
:10009000390500086F0200086F0200086F020008AF
:1000A0006F0200086F0200086F0200086F0200086C
:1000B0006F0200086F0200086F0200086F0200085C
:1000C0006F0200086F0200086F0200088527000811
:1000D0006F0200086F0200086F0200086F0200083C
:1000E0006F0200086F0200086F0200086F0200082C
:1000F0006F0200086F0200086F0200086F0200081C
:100100006F0200086F0200086F0200086F0200080B
:100110006F0200086F0200086F0200084D290008F6
:100120006F0200086F0200086F0200086F020008EB
:100130006F02000800000000000000006F020008CD
:100140006F0200086F0200086F0200086F020008CB
:100150006F0200086F0200086F0200086F020008BB
:100160006F0200086F0200086F0200086F020008AB
:100170006F0200086F02000800000000000000008D
:100180006F0200086F02000800F002F800F052F859
:1001900014A696E8000CB244B344DA4501D100F04D
:1001A00049F8BAE80F000FA696E83000A5EB040561
:1001B00004EB0607AAEB0704A7F101074FEA1515A0
:1001C0004FEA3414A4F10104AC4201D300F032F838
:1001D00013F0010F18BFFB1A43F0010300F001F800
:1001E000DBE71847642E0000842E0000103A24BF7D
:1001F00078C878C1FAD8520724BF30C830C144BF8C
:1002000004680C6070470000704700000023002461
:1002100000250026103A28BF78C1FBD8520728BF16
:1002200030C148BF0B6070471FB502F0E0FE1FBD34
:1002300010B510BD00F014F91146FFF7F5FF02F0FC
:1002400007FD00F032F903B4FFF7F2FF03BC00F042
:10025000F9F800000948804709480047FEE7FEE733
:10026000FEE7FEE7FEE7FEE7FEE7FEE7FEE7FEE766
:1002700004480549054A064B704700003929000823
:1002800089010008380300203809002038050020C3
:100290003805002053EA020C00F069802DE9F04B8C
:1002A0004FF00006002B1FBFB3FA83F503FA05F4E5
:1002B00024FA05F65E4012BF1643B2FA82F502FA3E
:1002C00005F4C5F120051EBF22FA05FC44EA0C0422
:1002D000203556EA044C4FEA144418BF641C4FF012
:1002E00000084FF00009904271EB030C39D300294C
:1002F00019BFB1FA81F701FA07F6B0FA80F700FAF0
:1003000007F6C7F120071EBF20FA07FC46EA0C06D5
:100310002037B6FBF4FCA7EB0507103F07F01F0BD7
:10032000CBF120062CFA06F60CFA0BFB44BFB346C1
:100330000026202FA4BF5E464FF0000B5BEA060CA0
:1003400008BF4FF0010B19EB0B0948EB0608ABFB9C
:10035000027C06FB02CC0BFB03CCC01B71EB0C0137
:10036000C1E70B46024641464846BDE8F08B13B54F
:10037000084318BF4FF0FF300146AFF30080BDE8DF
:100380001C4070470EB5054614460E4613A000F0FB
:1003900047F8284600F044F816A000F041F830462F
:1003A00000F03EF815A000F03BF800218DF80B108E
:1003B0000A210DF10A008DF80A1008E094FBF1F211
:1003C00001FB124294FBF1F4303200F8012D002CB5
:1003D000F4DC00F025F800F018F800002A2A2A20A2
:1003E000617373657274696F6E206661696C6564B0
:1003F0003A2000002C2066696C6520002C206C6976
:100400006E65200070477047704710B5002000F0FF
:100410001FF8FFF70DFFBDE81040012000F012B8F3
:1004200010B5044602E0641C00F004F820780028AF
:10043000F9D110BD08B569468DF800000320ABBEA8
:1004400008BD000001491820ABBEFEE726000200EF
:1004500010B500F039F8BDE8104000F02FB8704733
:10046000754600F049F8AE4605006946534620F04F
:100470000700854618B020B5FFF7FAFEBDE820401A
:100480004FF000064FF000074FF000084FF0000B50
:10049000AC46ACE8C009ACE8C009ACE8C009ACE8BF
:1004A000C00921F007018D46704710B50446AFF32F
:1004B00000802046BDE81040FFF7C5BE002801D0EF
:1004C000FFF7C0BF7047000010B5002102A000F088
:1004D00017F8012010BD0000534947414252543AD9
:1004E0002041626E6F726D616C207465726D696E11
:1004F0006174696F6E0000000048704710000020B2
:1005000070B505460C460A2000E06D1CFFF792FF0F
:1005100035B128780028F8D102E0641CFFF78AFF83
:1005200014B120780028F8D1BDE870400A20FFF708
:1005300081BF0000FEE7000040F29000C2F2000020
:1005400000F06EB870470000102000F021BB0000E2
:10055000EFF3108072B600BFFEE7000010B590F810
:1005600020E0D0F800C0AEF1010EBEF1010FDCF8C2
:1005700008E011D81EF0E05F18D0CEF3016EBEF196
:10058000030F1DD100F1240101204FF400020B687C
:100590001A430A6010BD00BF00F1240101204FF48E
:1005A00080220B681A430A6010BD00BF00F12401CD
:1005B00001204FF400120B681A430A6010BD00BFFF
:1005C000012000FA0EF01860886828B14B68CC68EA
:1005D00044EAC303034303E00868CB6843EA40539B
:1005E0000CEB0E10C0F880310B69C0F88431097D26
:1005F000012905D100F5C2710B6843F480730B60CB
:100600005168C0F88C11126800F5C071C0F88821DB
:10061000002001220B681A430A6010BD70470000D9
:100620002DE9F04F81B0044600684669D0F8049087
:100630008768D0F80CB0D0F810A0D0F81880F10777
:1006400004D1002530071DD424E000BFF90710D0E5
:100650000121BA07816009D4780700F1AF8038071B
:1006600000F1B680204600F055FA02E0204600F086
:1006700053FA0025F80500F18780F80300F1B180F6
:10068000300707D51BF0100004D0206845F4007532
:100690001021C160700708D51BF0080005D0206844
:1006A0000821C160204600F0FDF9B00706D520689A
:1006B000C068800702D0204600F0F6F9700607D522
:1006C0001AF0100004D0206845F480651021016103
:1006D000B00608D51AF0080005D02068082101618D
:1006E000204600F0E3F9F00606D52068006980078F
:1006F00002D0204600F0DCF9B00308D519F0100054
:1007000005D0206810214160204600F0D3F9F003A5
:1007100008D519F0080005D020680821416020465E
:1007200000F004FA300440F19B805FEA497040F128
:10073000948006F4807008EA102028435FEA8871EC
:10074000014648BF41F00201B20558BF01465FEAC9
:1007500048700D4648BF45F00405700558BF0D466A
:10076000300540F17A8018F0700000F07680103883
:10077000000905286CD8DFE800F003595D61656960
:1007800045F0080564E000BF20684FF48071BA05A9
:1007900081600BD4780515D438051DD4204600F0AF
:1007A000BDF9F8037FF56CAF1BE000BF204600F0F9
:1007B000B7F9F8037FF564AF13E000BF4FF40065AD
:1007C00058E700BF05F50055F8037FF559AF08E07D
:1007D0004FF480554EE700BF05F58045F8037FF5DF
:1007E0004FAF20684FF48031BA0381600AD4780398
:1007F00010D4380314D4204600F094F930073FF5A4
:1008000041AF47E7204600F08FF930073FF53AAF98
:1008100040E700BF05F5004530073FF533AF39E746
:1008200005F5803530073FF52DAF33E745F010056E
:100830000EE000BF45F020050AE000BF45F040058E
:1008400006E000BF45F0800502E000BF45F480757A
:100850002068816921F07001816120680421416074
:1008600055B1606A40EA05012046616201B0BDE809
:10087000F04FFFF7D3BE00BF01B0BDE8F08F00001E
:10088000002804BF01207047B0B5044690F820004E
:1008900010B9204600F06EF82068016841F00101AF
:1008A000016000F05DFA054620684168C90705D17E
:1008B00000F056FA401B0B28F6D310E0016821F037
:1008C0000201016000F04CFA054600BF2068416853
:1008D00089070DD500F044FA401B0B28F6D3606A57
:1008E000052140F400306062012084F82010B0BD82
:1008F000217E0268012922F0800208BF8032026056
:10090000617E0268012922F0400208BF4032026085
:10091000A17E0268012922F0200208BF2032026075
:10092000E17E0268012922F0100218BF1032026035
:10093000217F0268012922F0080208BF0832026004
:10094000617F0268012922F0040208BF04320260BC
:10095000D4E901C2D4E9033561691A432A4311433A
:10096000ACF101021143C16100200121606284F8F1
:100970002010B0BD80B586B0006846F60002C4F213
:10098000000200219042CDE90411CDE9021101914C
:1009900046D046F20041C4F20001884240F07F8018
:1009A00040F2B801C2F200010A6843F64000C4F206
:1009B0000200531C0B6052B900210091016841F004
:1009C00000710160016801F000710091009900213F
:1009D000009150F8102C42F0020240F8102C50F810
:1009E000100C00F00200009000984FF4407001904D
:1009F0000220CDE90201032004900920059040F275
:100A00000040C4F2020001A900F0CEF81420002139
:100A1000002200F027FA142000F012FA06B080BD80
:100A200043F64000C4F202000091016841F0806189
:100A30000160016801F080610091009940F2B80105
:100A4000C2F200010A68531C0B6052B900210091E8
:100A5000016841F000710160016801F000710091CE
:100A600000990021009150F8102C42F0020240F849
:100A7000102C50F8100C00F002000090009860203C
:100A800001900220CDE90201032004900920059085
:100A900040F20040C4F2020001A900F085F806B05F
:100AA00080BD0000704700007047000070470000E4
:100AB0007047000070470000B0B5044690F8200071
:100AC00001281DD1022084F820002068016821F04F
:100AD0000101016000F044F9054600BF206840684C
:100AE000C00713D000F03CF9401B0B28F6D3606A16
:100AF00040F400306062052084F820000120B0BD81
:100B0000606A40F4002060620120B0BD0020606295
:100B1000B0BD000070470000704700007047000043
:100B200070470000704700007047000070470000E9
:100B300090F83510022909D1052180F83510006898
:100B4000016821F0010101600020704780214165AA
:100B500001207047B0B5044600F002F9054640F2A6
:100B60000000C2F200000078611C18BF044400BFFE
:100B700000F0F6F8401BA042FAD3B0BD102818BF11
:100B8000704740F2C400C2F20000012101707047BA
:100B900043F61441C4F201010A68024214BF08601E
:100BA0007047FFF7EBBF00002DE9F04F82B000F176
:100BB0003E4707F1FF77860546EA972741F600464C
:100BC000C4F20206082243F6004EB04208BF0722D4
:100BD000C4F2010E072F38BF3A46002600274FF017
:100BE0000008009209E000BF08F101080237B8F1DF
:100BF000100F06F1040600F0A1800D68012202FA30
:100C000008F415EA0409EFD0D1F804B003220BF080
:100C1000030CACF10105BA40012D6FEA020A0FD8AE
:100C20008268CD6802EA0A02BD402A4382604268B7
:100C3000A243CBF3001404FA08F42243426005E017
:100C4000BCF1030F02D14FF0030C1EE0C2688C68A8
:100C500002EA0A02BC402243BCF1020FC26014D176
:100C60006FF0030202EA58020244D2F820C006F0F4
:100C70001C040F230D69A3402CEA0303A5402B435A
:100C80001362D1F804B00BF0030C02680CFA07F3FE
:100C900002EA0A021A431BF4403F0260A4D0002279
:100CA00043F644030192C4F202031A684FF6084C5B
:100CB00042F480421A601A68CFF6FF7C02F4804248
:100CC0000192019A28F00302724452F80C3006F0A7
:100CD0000C050F24AC40A343009C04FA05F52B43FC
:100CE00042F80C30DEF800204B6842EA0905DC03CC
:100CF00058BF22EA0905CEF80050DEF804209C0314
:100D000042EA090558BF22EA0905CEF80450DEF888
:100D10000820DC0242EA090543F60C4458BF22EAE7
:100D20000905CEF80850C4F2010422689B0242EA89
:100D3000090558BF22EA0905256055E702B0BDE85C
:100D4000F08F0000426902EA0103914341EA034146
:100D500081617047002A08BF090481617047000063
:100D600040F23030C2F200000068704740F20000EC
:100D700040F23031C2F20000C2F2000100780A688D
:100D8000104408607047000080B543F60040C4F28C
:100D90000200016841F400710160016841F4806162
:100DA0000160016841F480710160032000F086F861
:100DB000002000F005F800F027F8002080BD0000BA
:100DC00070B540F20006C2F2000640F20C01327823
:100DD000C2F200014FF47A730968B3FBF2F20446E1
:100DE000B1FBF2F1084601F017F80F2C4FF00105A6
:100DF00008D838B94FF0FF3021460022002500F016
:100E000031F87460284670BD82B0002043F640017E
:100E10000190C4F202014A6842F480424A604A6882
:100E200002F480420192019A0090086840F08050DC
:100E30000860086800F080500090009802B0704789
:100E4000002848BF704700F01F01012202FA01F19B
:100E50001C2202EAD0004EF20012CEF200028150B3
:100E60007047000010B54EF60C5CCEF2000CDCF8BA
:100E70000030C3F3022E8EF00704042C28BF042494
:100E8000BEF103034FF0FF3E0EFA04F438BF002317
:100E9000A14399400EFA03F39A43114300F00F0265
:100EA00000F160430901043A03F5644362440028F9
:100EB00048BF02F10C03197010BD00004EF60C5132
:100EC000CEF200010A684FF6FF031A4060F30A22CF
:100ED00042F0806040F0FD7008607047002804BF59
:100EE000012070472DE9F04143F60808C4F20208DA
:100EF0000446D8F8F8030D4600F00700884207D2F0
:100F000088F8F853D8F8F80300F00700A84277D122
:100F10002068810717D5410705D5D8F8001041F49E
:100F2000E051C8F80010010705D5D8F8001041F4C9
:100F30006041C8F80010D8F80010A26821F0F00154
:100F40001143C8F80010C00740D1D8F8F80300F0EA
:100F50000700A84207D988F8F853D8F8F80300F03A
:100F60000700A8424CD12068410707D5D8F80010E7
:100F7000E26821F4E0511143C8F80010000708D5D9
:100F8000D8F80000216920F4604040EAC100C8F8A8
:100F9000000000F05BF8D8F8001043F20802C1F33B
:100FA0000311C0F60002515C40F20C0220FA01F17C
:100FB00040F20400C2F200000068C2F200021160B8
:100FC000FFF7FEFE0020BDE8F08100BF6068811ED3
:100FD000022907D258F8081C89015CBF0120BDE82E
:100FE000F08111E0012807D158F8081C89035CBF83
:100FF0000120BDE8F08107E058F8081C890703D4F8
:101000000120BDE8F08100BFD8F8001021F00301F5
:101010000843C8F80000FFF7A3FE064641F28837F0
:10102000D8F80000616800F00C00B0EB810F8CD0A4
:10103000FFF796FE801BB842F2D90320BDE8F0818D
:1010400040F20C00C2F200000068704710B543F691
:101050000404C4F20204606800F00C0008280BD0FD
:10106000042819BF42F20040C0F2F40041F60030FB
:10107000C0F2B70010BD00BF206821682368490294
:1010800041F60031C0F2B70100F03F02C3F388100F
:101090005CBF42F20041C0F2F401A1FB0001002359
:1010A000FFF7F8F821680222C1F3014102EB410188
:1010B000B0FBF1F010BD0000002804BF0120704714
:1010C0002DE9F04182B00446007843F60006C007DF
:1010D000C4F202060CD0B06800F00C00042840F006
:1010E00081803068800303D56068002800F06A8141
:1010F000207880071BD5B06810F00C0F09D0B068BD
:1011000000F00C00082840F087807068400200F171
:1011100083803068800703D5E068012840F0528161
:101120003068216920F0F80040EAC1003060207882
:10113000000713D4207840072AD4A569002D00F0B9
:101140003C81B06800F00C00082840F0A180012D1F
:1011500040F01081012002B0BDE8F08160690028F4
:1011600040F20000C4F2472000F07E800121C0F868
:10117000801EFFF7F5FD0546706F8007DAD4FFF794
:10118000EFFD401B0228F7D9032002B0BDE8F08133
:10119000306C5FEAC0080AD400200190306C40F047
:1011A00080503064306C00F080500190019847F21C
:1011B0000007C4F200073868C00547D4386840F417
:1011C00080703860FFF7CCFD054600BF3868C00569
:1011D0003CD4FFF7C5FD401B0228F7D9032002B01D
:1011E000BDE8F081B06800F00C00082803D17068F9
:1011F00040023FF576AF6068B0F5803F07D0B0F5AC
:10120000A02F40F09B80306840F480203060306830
:1012100040F4803030609BE0E06800285CD0002023
:10122000C4F2472001210160FFF79AFD054600BF87
:10123000306880073FF574AFFFF792FD401B02282E
:10124000F6D9032002B0BDE8F08100BFA0680128F4
:1012500005D0052854D1306F40F004003067306F5E
:1012600040F00100306755E00021C0F8801EFFF714
:1012700077FD0546706F80077FF55CAFFFF770FD67
:10128000401B0228F6D9032002B0BDE8F08100BF60
:101290000027C4F2472700203866FFF761FD022DC2
:1012A00005460DD13068800140F19080FFF758FD70
:1012B000401B02284FF00300F4D902B0BDE8F081D2
:1012C0003068800179D5FFF74BFD401B02284FF0B5
:1012D0000300F5D9F1E700BF0020C4F24720002148
:1012E0000160FFF73DFD0546306880077FF51FAFC1
:1012F000FFF736FD401B02284FF00300F4D9DCE76E
:10130000316F002821F001013167316F21F00401B4
:1013100031677DD0FFF724FD054641F2883700BFD5
:10132000306F800700F18680FFF71AFD401BB8423E
:10133000F6D9032002B0BDE8F08100BF3168002873
:1013400021F480313160316821F4802131607BD01B
:10135000FFF706FD054600BF306880033FF5C8AEC5
:10136000FFF7FEFC401B6428F6D9032002B0BDE85D
:10137000F08100BF7068E16900F480028A4221D1E7
:10138000216A00F03F028A421CD147F6C071626AAE
:101390000140B1EB821F15D1A16A4FF6FF73C9035B
:1013A000994300F44032A1F580318A420AD1E16AC2
:1013B00000F07060B0EB016F04D1002002B0BDE816
:1013C000F08100BF012002B0BDE8F08104F11C05EE
:1013D0002FCD084340EA8210D9034FF6FF729143A4
:1013E000A1F5803140EA056008437060012038664D
:1013F000FFF7B6FC044600BF30688001DDD4FFF77C
:10140000AFFC001B02284FF00300F5D955E700BFE1
:10141000FFF7A6FC054641F2883700BF306F800712
:1014200008D5FFF79DFC401BB8424FF00300F5D9EB
:1014300043E700BFB8F1000F3FF57FAE306C20F0FE
:101440008050306479E600BFFFF78AFC054600BF94
:10145000306880037FF54CAEFFF782FC401B6428A8
:101460004FF00300F4D928E770470000B0B582B010
:10147000044600684168826802F04103012B09D1EB
:1014800011F0400306D0216C204602B0BDE8B04008
:10149000084700BF930709D511F0800306D0616C9F
:1014A000204602B0BDE8B040084700BF12F4B07F4C
:1014B00018BF11F0200301D102B0B0BD530618D5FA
:1014C00094F85130032B09D100210191C168019199
:1014D00080680190019802B0B0BD00BF636D43F019
:1014E0000403636500230193C36801938368019338
:1014F000019B930604D4D20511D4626DDAB9DBE7FF
:10150000636D43F0010363650023019383680193D6
:10151000036823F040030360019BD205EDD5626DA3
:1015200042F0080262650022019282680192019AEB
:10153000626D002AC0D04268890722F0E002426052
:101540004FF0010284F8512020D0416842F2917599
:1015500021F003014160E06CC0F6000538B105657B
:10156000FFF7E6FA18B1606D40F040006065A06CCE
:101570000028A1D00565FFF7DBFA00289CD0606D3C
:1015800040F04000606502B0B0BD00BF204602B030
:10159000BDE8B040FFF768BF70B538B10446406A97
:1015A00030B10020206104F1140007E0012070BD7B
:1015B0006068B0F5827F03D004F11C000021016057
:1015C0000026A66294F8510020B9204684F85060A5
:1015D00000F03CF8022084F8510094E80F0001F478
:1015E0008271056802F4044225F04005056011444B
:1015F00003F400622369114403F002026369114499
:1016000003F00102A369E569114403F40072114477
:1016100005F03802256A114405F08002A56A1143DD
:1016200005F4005211430160626A042101EA13418A
:1016300002F0100211444160C16921F40061C161EE
:101640000120666584F85100304670BD016843F2A0
:101650000000C4F20100814218BF704780B586B017
:10166000002143F630020191C4F20202536900F5F1
:10167000504043F480535361536903F48053019302
:10168000019B0191136843F001031360126802F09B
:1016900001020192019AE02201920222CDE9022187
:1016A000032104910521059101A9FFF77DFA23206B
:1016B00000210022FFF7D6FB2320FFF7C1FB06B075
:1016C000BDE88040704700002DE9F04381B004463A
:1016D00040681D461746B0F5827F0E4602D1A068CD
:1016E000002841D094F85000012803D1022001B015
:1016F000BDE8F0834FF0010984F85090FFF730FB0C
:1017000094F8511001292DD18046002E4FF0010090
:1017100018BF002F00F0C5800420002184F851007C
:101720006165A663A787E7872163A186E186A26832
:101730002068B2F5004F216461644FD1016821F047
:1017400040010160016821F480410160016849069F
:1017500047D5E168E08F00294BD000287AD0681C7B
:101760001BD12AE002209CE0042084F8510020468E
:10177000314632463B46009500F0C4F901B0BDE861
:10178000F08300BFC068A16B21F8020BA163E08F5A
:101790000138E087E08F00285CD020688168C907A5
:1017A000F0D1FFF7DDFAA0EB0800A842F2D33AE04F
:1017B000FFF7D6FAE08F00284CD020688168C9076F
:1017C000F6D0C068A16B21F8020BA163E08F01384D
:1017D000E087E08F0028F0D13CE000BF01684906B7
:1017E000B7D4016841F040010160E168E08F002951
:1017F000B3D178B3681C0CD11CE000BF007BA16B97
:101800000870A06B0130A063E08F0138E087E08FA3
:1018100000B320688168C907F0D1FFF7A1FAA0EBF7
:101820000800A842F3D303203BE000BFFFF798FA7B
:10183000E08F78B120688168C907F7D0007BA16B81
:101840000870A06B0130A063E08F0138E087E08F63
:101850000028EFD16068B0F5827F0ED1A068B0F5A6
:10186000004F02D0B0F5806F0AD12168B0F5806FCB
:101870000A6822F040020A6002D12046012101E0FC
:10188000204680212A46434600F088FF28B1606D3B
:1018900040F02000606520206065606D002818BF62
:1018A0000120002184F8519084F8501001B0BDE867
:1018B000F08300002DE9F04383B0044690F8500017
:1018C000012803D1022003B0BDE8F0834FF00109E5
:1018D0001D4616460F4684F85090FFF741FA94F8DB
:1018E0005110012944D18046002F4FF0010018BF4C
:1018F000002E00F0D4800320002184F8510061659F
:101900002763A686E686A163A187E187A068216494
:10191000B0F5004F2068616407D1016821F04001F3
:101920000160016841F4804101600168490603D407
:10193000016841F0400101606168731EE268B1FA1C
:1019400081F1B3FA83F349095B09B2F5006F41EA0B
:1019500003013BD131B137F8021BC1602763E08E30
:101960000138E086E08E00286AD0681C0DD11CE0AA
:10197000022094E0216B31F8022BC2602163E08EDB
:101980000138E086E08E00285AD0206881688907F7
:10199000F0D4FFF7E5F9A0EB0800A842F2D338E055
:1019A000FFF7DEF9E08E00284AD0206881688907B9
:1019B000F6D5216B31F8022BC2602163E08E01382D
:1019C000E086E08E0028F0D13AE000BF39B13978E6
:1019D0000173206B01302063E08E0138E086E08ED9
:1019E00070B3681C0BD11BE0216B09780173206B6D
:1019F00001302063E08E0138E086E08E00B320687D
:101A000081688907F0D4FFF7ABF9A0EB0800A84282
:101A1000F3D3032043E000BFFFF7A2F9E08E78B1D3
:101A2000206881688907F7D5216B09780173206BDD
:101A300001302063E08E0138E086E08E0028EFD18F
:101A400040F20C00C2F20000006849F68171C1F258
:101A50005E61A0FB0101480D4FF47A71484302908A
:101A60006068B0F5827F23D1204680212A46434614
:101A700000F094FE28B1606D40F0200060652020E9
:101A80006065A06838B9002001902068C1680191A4
:101A9000806801900198606D002818BF0120002126
:101AA00084F8519084F8501003B0BDE8F08300BF73
:101AB00002980028E5D002980138029020688068DA
:101AC0000006DED502980028DBD00298013802908B
:101AD000206880680006D4D502980028D1D00298EA
:101AE00001380290206880680006CAD50298002854
:101AF000C7D0029801380290206880680006D7D4C9
:101B0000BFE700002DE9F04383B0044690F8500091
:101B1000012803D1022003B0BDE8F08301201E4656
:101B200015460F4684F85000FFF71AF994F8511043
:101B3000814601290DD06068B0F5827F40F0A28017
:101B400004294FF0020040F05E81A168002940F0B6
:101B50005A81002F4FF0010018BF002D00F0538173
:101B6000002E00F0508194F85100002104281CBF81
:101B7000052084F851006165A563E687A687276381
:101B8000E6862068A686216461640168490603D45C
:101B9000016841F0400101606168731EE268B1FABA
:101BA00081F1B3FA83F3DDF8288049095B09B2F5C6
:101BB000006F41EA030167D131B137F8021BC16000
:101BC0002763E08E0138E086012518F1010032D14B
:101BD00002E000BFFFF7C4F8E08E18B9E08F0028DC
:101BE00000F0BA802068816889070CD5E18E51B178
:101BF000012D08D1216B002531F8022BC260216331
:101C0000E18E0139E1868168C907E3D0E18F0029BF
:101C1000E0D0C068A16B012521F8020BA163E08F21
:101C20000138E087D6E700BFFFF79AF8A0EB09007C
:101C3000404580F0E780E08E18B9E08F002800F082
:101C40008B802068816889070CD5E18E51B1012D08
:101C500008D1216B002531F8022BC2602163E18E8F
:101C60000139E1868168C907DED0E18F0029DBD028
:101C7000C068A16B012521F8020BA163E08F013838
:101C8000E087D1E70220BEE039B139780173206BDB
:101C900001302063E08E0138E086012518F1010053
:101CA00032D101E0FFF75CF8E08E10B9E08F002838
:101CB00052D02068816889070ED5E18E61B1012D6F
:101CC0000AD1216B002509780173216B206801314D
:101CD0002163E18E0139E1868168C907E2D0E18F95
:101CE0000029DFD0C068A16B01250870A06B01300E
:101CF000A063E08F0138E087D4E700BFFFF730F83A
:101D0000A0EB090040457DD2E08E08B9E08F18B302
:101D10002068816889070ED5E18E61B1012D0AD155
:101D2000216B002509780173216B20680131216343
:101D3000E18E0139E1868168C907DFD0E18F002992
:101D4000DCD0C068A16B01250870A06B0130A063D6
:101D5000E08F0138E087D1E740F20C00C2F20000CA
:101D6000006849F68171C1F25E61A0FB0101480D76
:101D70004FF47A71484302906068B0F5827F0FD1CA
:101D80002046802142464B4600F008FD60B3606D5E
:101D900040F02000606520206065012033E000BF36
:101DA000029808B302980138029020688068000603
:101DB0001AD50298C0B10298013802902068806854
:101DC000000611D5029878B1029801380290206877
:101DD0008068000608D5029830B102980138029058
:101DE000206880680006DBD4A06800284FF000005F
:101DF00009D101902168CA6801928968019101990D
:101E000001E000BF0320012184F85110002184F873
:101E1000501003B0BDE8F083411E0020B0EB116FFD
:101E20001CBF012070474EF21002CEF2000251603A
:101E30004EF62351CEF20001F0230B700721906083
:101E400011607047704700007047000090F83C2018
:101E5000012A4FF0020254D010B580F83D200268EC
:101E6000D2F804E0D2F808C00C682EF070032343C7
:101E700041F2FF74C4F20004A24253600EDC40F24F
:101E8000FF73C4F200039A4216DCB2F1804F2BD0EC
:101E900040F20043C4F2000324E000BF40F2FF33ED
:101EA000C4F201039A4213DC41F60003C4F20003BA
:101EB0009A4219D0002313E040F60003C4F2000355
:101EC0009A4211D040F60043C4F200030AE000BF7A
:101ED00044F20003C4F201039A4205D040F20043E9
:101EE000C4F201039A4204D149682CF080031943DB
:101EF00091600121002280F83D1080F83C20BDE86F
:101F00001040104670470000002804BF01207047B1
:101F100010B5044690F83D0028B9002084F83C0034
:101F2000204600F01FF8022084F83D002068211DA3
:101F300000F012FD012084F8460084F83E0084F889
:101F40003F0084F8400084F8410084F8420084F89F
:101F5000430084F8440084F8450084F83D000020E4
:101F600010BD000080B582B0006840F6FF31C4F2B9
:101F7000000188421EDD40F60041C4F200018842A3
:101F800030D041F20041C4F20001884238D040F222
:101F90000041C4F2010188425BD10020019043F668
:101FA0004000C4F20200416841F002014160406813
:101FB00014E000BFB0F1804F3CD040F20041C4F2C9
:101FC0000001884245D10020019043F64000C4F250
:101FD0000200016841F002010160006800F00200A7
:101FE00035E000BF0020019043F64000C4F202003B
:101FF000016841F008010160006800F0080026E077
:102000000020019043F64000C4F202000168002263
:1020100041F0200101600068002100F020000190E3
:1020200001983720FEF71EFF372002B0BDE8804040
:10203000FEF706BF0020019043F64000C4F2020004
:10204000016841F001010160006800F001000190A9
:10205000019802B080BD000090F83C20012A4FF0AA
:10206000020200F0C58080B580F83D20D0F800C0A5
:102070004FF67772DCF8083023EA0202CCF8082029
:102080000B684F2B28DC1F2B44DD202B45D0302B39
:1020900043D0402B40F0AE80D1F804E0C968DCF8B2
:1020A0002030DCF8202022F00102CCF82020DCF8DF
:1020B000182022F0F00242EA011123F00A0242EA5B
:1020C0000E02CCF81810CCF82020DCF8081041F0F3
:1020D000470121F0300180E06F2B27DDB3F5005F71
:1020E00048D0B3F5805F7AD0702B40F08380D1E97F
:1020F00001E3C968DCF8082043EA0E0322F47F42BA
:1021000043EA01211143CCF80810DCF8081041F033
:10211000770162E00BB1102B6CD1DCF8081021F0D4
:102120007001194341F0070157E000BF502B35D033
:10213000602B5FD1D1F804E0C968DCF8203023F0CF
:102140001003CCF82030DCF81830DCF8202023F421
:10215000704322F0A00243EA013142EA0E12CCF8A9
:102160001810CCF82020DCF8081041F0670121F0AD
:10217000100132E0D1E901E3C968DCF8082043EA44
:102180000E0322F47F4243EA01211143CCF80810E8
:10219000DCF8081041F480411FE000BFD1F804E0F2
:1021A000C968DCF82030DCF8202022F00102CCF8ED
:1021B0002020DCF8182022F0F00242EA011123F07E
:1021C0000A0242EA0E02CCF81810CCF82020DCF803
:1021D000081041F0570121F02001CCF8081000222E
:1021E000012180F83D10002180F83C10BDE88040BE
:1021F000104670470122F3E77047000010B50168F0
:1022000004460869800744BFC8685FEA807039D413
:102210000869400744BFC8685FEA40703ED4086957
:10222000000744BFC8685FEA007045D40869C0066B
:1022300044BFC8685FEAC0604AD40869C0071CBFD1
:10224000C8685FEAC07051D10869000644BFC86819
:102250005FEA006052D40869400644BFC8685FEA7C
:10226000406053D40869800646BFC8685FEA806052
:1022700010BD6FF0200220460A61BDE81040FFF754
:10228000E3BD00BF6FF0020008610120207788697C
:10229000800743D02046FFF7AFFF45E06FF0040012
:1022A000086102202077886910F4407F40D02046E2
:1022B000FFF7A2FF42E000BF6FF0080008610420B2
:1022C0002077C86980073DD02046FFF795FF3FE0A3
:1022D0006FF01000086108202077C86910F4407F73
:1022E0003AD02046FFF788FF3CE000BF6FF00100C6
:1022F0000861204600F03EF82168A5E76FF08000F5
:1023000008612046FFF79EFD2168A4E76FF04000BA
:102310000861204600F030F82168A3E7204600F06D
:1023200025F8204600F024F82168002020776FE788
:10233000204600F01BF8204600F01AF82168002023
:1023400020776CE7204600F011F8204600F010F8E6
:1023500021680020207769E7204600F007F8204632
:1023600000F006F821680020207766E7704700003B
:10237000704700007047000070470000FEE7000053
:1023800080B540F2700046F20041C2F20000C4F293
:10239000000140F8201F03210022C0E9011200F1D2
:1023A0000C014FF420234FF4801C81E80C10826153
:1023B0008283FEF765FA002808BF80BDBDE8804033
:1023C000FEF7C6B880B540F2C80046F60001C2F27A
:1023D0000000C4F200010622002380E80E0000F194
:1023E0000C014FF4202C4FF4801E81E808508361CB
:1023F0008383FEF745FA002808BF80BDBDE8804012
:10240000FEF7A6B82DE9F04F87B0002443F6300060
:1024100006940194C4F20200016840F2000841F001
:10242000800101600168C4F2020801F0800101919D
:1024300001990194016808F5006641F0040101600A
:102440000168002201F004010191019901940168E1
:10245000332541F001010160016801F001010191A2
:1024600001990194016841F0020101600068332183
:1024700000F00200019001983046FEF76BFC4046E8
:10248000082100224FF0080BFEF764FC08F5806A73
:102490005046902100224FF09009FEF75BFC02AFFE
:1024A0000295012530463946CDE903540594FEF7DF
:1024B0007BFB40463946CDE902B5CDE90444FEF741
:1024C00073FB102002904FF40410CDE90305404641
:1024D0003946FEF769FB50463946CDE90295CDE90C
:1024E0000444FEF761FB0A2000210022FEF7BAFC3B
:1024F0000A20FEF7A5FC07B0BDE8F08F80B540F2DA
:10250000F00043F20001C2F20000C4F201014FF4F6
:10251000827200234FF4007C80E80E000A21C0E99B
:102520000333C0E9053CC361C0E90833C0E90A319F
:10253000FFF732F8002808BF80BDBDE88040FEF7F5
:1025400007B8000080B586B040F248100021C2F202
:10255000000042F2107C0591CDE90311CDE9001194
:102560004FF080425423C0E9021C01618021C0E980
:1025700000238161FFF7C8FC002818BFFDF7E8FFC2
:102580004FF48050029040F24810C2F2000002A9BD
:10259000FFF762FD002818BFFDF7DAFF40F2481090
:1025A000C2F200006946FFF751FC002818BFFDF792
:1025B000CFFF06B080BD000080B586B040F290101D
:1025C0000021C2F2000040F200424FF4FA7C059173
:1025D000CDE90311CDE90011C4F200025423C0E992
:1025E000021C01618021C0E900238161FFF78CFC9E
:1025F000002818BFFDF7ACFF4FF48050029040F266
:102600009010C2F2000002A9FFF726FD002818BFB3
:10261000FDF79EFF40F29010C2F200006946FFF7FE
:1026200015FC002818BFFDF793FF06B080BD000021
:1026300080B586B040F2D8100021C2F2000040F60A
:10264000004242F2107C0591CDE90311CDE9001161
:10265000C4F200025423C0E9021C01618021C0E9D8
:1026600000238161FFF750FC002818BFFDF770FFC1
:102670004FF48050029040F2D810C2F2000002A93C
:10268000FFF7EAFC002818BFFDF762FF40F2D81000
:10269000C2F200006946FFF7D9FB002818BFFDF71A
:1026A00057FF06B080BD000080B582B040F2202008
:1026B00041F200420021C2F20000C4F2000242F2E4
:1026C000CF0341F2883CCDE90011C0E90023C0E905
:1026D000021C8161FFF718FC002818BFFDF738FFC6
:1026E00040F22020C2F200006946FFF7AFFB00284D
:1026F00018BFFDF72DFF02B080BD000080B586B089
:1027000040F2682040F200420021C2F20000C4F210
:102710000102A8234FF4FA7C4FF0800E0591CDE919
:102720000311CDE90011C0E90023C0E9021CC0E992
:102730000411C0F818E0FFF7E7FB002818BFFDF709
:1027400007FF4FF48050029040F26820C2F2000070
:1027500002A9FFF781FC002818BFFDF7F9FE40F23F
:102760006820C2F200006946FFF770FB002818BF1E
:10277000FDF7EEFE06B080BDFEE70000FEE70000BC
:102780007047000040F2F000C2F20000FEF76EBE9B
:10279000806B0021C187C186FEF766BE2DE9F0413E
:1027A00082B01E4690460D460446FEF7D9FA301A0E
:1027B00000EB0807FEF7D4FA40F20C01C2F2000168
:1027C0000968C1F3CB317943019121688A682A40B5
:1027D000AA4227D1064618F101001FD0FEF7C0FA21
:1027E000801BB84222D2019801990028A1F1010171
:1027F00001912168896808BF074601EA0500A842DF
:10280000ECD00FE088682840A8420BD188682840A7
:10281000A84207D188682840A84203D18868284088
:10282000A842EFD0002002B0BDE8F081D4E9000159
:102830004268B1F5827F22F0E00242600AD1A168CD
:10284000B1F5004F02D0B1F5806F03D1016821F0DE
:1028500040010160A16AB1F5005F07D1016821F470
:1028600000510160016841F400510160012084F8C9
:102870005100002084F85000032002B0BDE8F08130
:1028800070470000FEF772BAB0B592B0002443F66C
:1028900040000B94CDE90944CDE907440594CDE906
:1028A0000344CDE901440094C4F20200016802250A
:1028B00041F080510160006800F080500090009865
:1028C00047F200000094C4F20000016841F4804126
:1028D0000160006800F48040009000980120099099
:1028E00010200A9008200E90A820CDE90F050420A2
:1028F000119006A80695CDE90C54FEF7DDFB28B132
:10290000EFF3108072B600BFFEE700BF0F20CDE9E5
:1029100001054FF4A05004904FF48050059001A899
:1029200005210394FEF7DAFA20B1EFF3108072B6B6
:10293000FEE700BF12B0B0BD4EF68850CEF20000E8
:10294000016841F4700101607047000040F22020EE
:10295000C2F20000FFF752BC10B540F6FF3E03681C
:10296000C4F2000E40F2004C7045C4F2010C27DCAA
:10297000B0F1804F31D040F20042C4F200029042E8
:102980002BD040F60002C4F20002904225D041F65E
:10299000FF72C4F20002904229DC70453CDCB0F1C9
:1029A000804F5FD040F20042C4F20002904259D002
:1029B00040F60002C4F20002904253D056E000BF3D
:1029C00040F60042C4F20002904206D0604504D0B6
:1029D0000022C4F201029042D9D14A6823F0700368
:1029E000134341F6FF72C4F200029042D5DD43F674
:1029F000FF72C4F20102904222DC42F20002C4F2F1
:102A0000000290422ED00022C4F20102904229D04E
:102A1000604527D02AE000BF40F60042C4F2000221
:102A200090421FD041F60002C4F20002904219D039
:102A300041F60042C4F20002904213D016E000BFFB
:102A400044F20002C4F2010290420BD044F60002AC
:102A5000C4F20102904205D044F20042C4F20102E5
:102A6000904203D1CA6823F44073134323F08002D9
:102A70004B69D1F800E08C681A430260C46240F4EC
:102A80008062C0F828E0624504BF09690163012142
:102A9000416110BDFEE700002DE9F04184B0322015
:102AA00000F0D4F801204FF0010800F08DF900F09B
:102AB0001BFA40F2B025C2F200054FF0A06028607A
:102AC00040F21050C0F60E7068604FF4C060A881EC
:102AD0004FF00040C5F816004FF40040002768840E
:102AE000A885C5F836000020AF60C5F80E70C5F89F
:102AF0001270C5F81E70C5F81A70AF626F62C5F823
:102B00003270C5F82E70A5F87C7000F05BF90020DB
:102B100000F0BAF9002000F0B7F9002000F0B4F995
:102B2000012000F04FF948F26100CDE90170A8885A
:102B300043F21806C0F30121C0F60006715C000BD9
:102B400068F35F0002AC40F20F62484303976252A1
:102B5000C2B269462046009700F03EF940F6067082
:102B6000E880032000F09CF86120CDE90170A8887E
:102B700041F20512C0F30121715C000B68F35F00A4
:102B8000484303976252C2B269462046009700F05C
:102B900023F940F21150A880022000F081F804B01F
:102BA000BDE8F08110B540F20040C4F2020080217F
:102BB0000122FEF7CFF840F27004C2F2000404F1E3
:102BC0002000FDF779FF002818BFFDF7C1FC40F297
:102BD0000800C2F200000078012807D0002818BFC2
:102BE00010BD022040F2A11102E000BF4FF4D071ED
:102BF00000220823C4E90210C4E90422A361227759
:102C000010BD000010B540F27004C2F2000402468C
:102C100004F1200004F10801231DFDF79FFC18B109
:102C2000BDE81040FDF794BCFEF79AF82168884291
:102C300038BF10BD01F5FA7240F60000C4F2020080
:102C400020212260BDE81040FEF77CB8FDF782BF6E
:102C5000FEF79AF8FFF718FEFFF7D4FBFFF790FB9B
:102C6000FFF7B0FBFFF76EFCFFF7A6FCFFF7E0FCF9
:102C7000FFF744FDFFF742FCFFF716FDFFF792FF59
:102C8000FFF70AFF40F2BC04C2F20004FF2500BFB8
:102C90002046E571FFF7B6FF0520FFF7D7FFF7E7FE
:102CA0002DE9F04385B0402854D240F2B028C2F25A
:102CB00000088146B8F8040043F21804C0F301226A
:102CC000C0F60004A25CC0F30030013000264FEAD9
:102CD000C911A0235043CDE9016643EA59038DF899
:102CE0000910C2B202A801A98DF8083000F074F8EA
:102CF000B8F804000496C0F30121615CC0F3003011
:102D0000013000FB01F40020039600F05BF8E0B214
:102D1000A0B146424FF0FF3704AD03ACE81940784C
:102D200000F0B2F8E1190137F21901324870F5D11B
:102D30009DF80C409DF80D6001E000BF00240120CB
:102D400000F040F846EA042028F8190005B0BDE874
:102D5000F08300BF43F21C0043F23401C0F60000D0
:102D6000C0F600019622FDF70DFB000040F2B020F6
:102D7000C2F200004FF0A061016040F210514FF428
:102D8000C062C0F60E7182814FF0004241600021A6
:102D9000C0F816204FF400428160C0F80E10C0F851
:102DA0001210C0F81E10C0F81A10428481624162ED
:102DB0008285C0F83210C0F82E10C0F83620A0F876
:102DC0007C1070477047000002460020C4F20200E9
:102DD0000321FDF7BFBF00002DE9F04F81B0D8B34C
:102DE0000E46C9B392469AB340F2F00783460025D7
:102DF000C2F200070DF102080DF101090DF1030403
:102E000014E000BF3846414601224FF0FF33FEF781
:102E100051FD3846494601224FF0FF33FEF754FC7E
:102E20009DF8010070550135554511D01BF805007E
:102E30008DF8020038688068C007E3D03846214624
:102E400001224FF0FF33FEF73FFC0028F2D0D9E714
:102E500001B0BDE8F08F00BF02A007A14FF40772D8
:102E6000FDF790FA6461746154782026262064612D
:102E700074615278000000002E2E2F5372632F6869
:102E8000616C2E6300000000B0B582B040F2F00427
:102E9000C2F200040DF107058DF806002068806875
:102EA000C00708D02046294601224FF0FF33FEF725
:102EB0000BFC0028F2D040F2F004C2F200040DF145
:102EC0000601204601224FF0FF33FEF7F3FC0DF11F
:102ED0000501204601224FF0FF33FEF7F5FB9DF878
:102EE000050002B0B0BD0000B0B50024C4F2020479
:102EF00041F20405204603210022CEF20005FDF731
:102F000029FF0220FDF726FE204603210122FDF7BE
:102F100021FF2C68FEF794F84DF68361C4F21B3153
:102F2000A0FB0101880C00EB800000BF2968091B91
:102F300081420BD22968091B814207D22968091BEB
:102F4000814203D22968091B8142EFD3FFF70EFFAC
:102F500002204FF4A261BDE8B04000F001B80000CB
:102F6000F0B585B0402837D240F2B02704460D4670
:102F70004EF2FE40C2F200070840022C08BF00F2E9
:102F80000115B98843F21803C1F30122C0F600030A
:102F900000209A5C6023CDE90200CDE90000E00149
:102FA00043EA54038DF808308DF809002B0A02A873
:102FB0008354090B012363F35F0151438618CAB29E
:102FC00069467570FFF708FF204627F81450FFF791
:102FD00067FE05B0F0BD00BF43F21C0043F23401B0
:102FE000C0F60000C0F60001BF22FDF7CBF9F1EEFC
:102FF000100A4FF6FF71C0F2C03120EA010040F024
:103000004070E1EE100A7047000000000000000070
:1030100001020304060708090203040461646472E0
:10302000657373203C204E554D5F524547495354BC
:10303000455253002E2E2F5372632F616473313328
:10304000316D30782E6300006830000800000020E9
:1030500010000000EC01000878300008100000208B
:10306000280900000C020008010000001000000008
:08307000010000000024F4003F
:040000050800018965
:00000001FF
